{
  "_format": "hh-sol-artifact-1",
  "contractName": "TYTokenBank",
  "sourceName": "contracts/bank-with-erc20.sol",
  "abi": [
    {
      "inputs": [
        {
          "internalType": "address",
          "name": "_tytAddress",
          "type": "address"
        }
      ],
      "stateMutability": "nonpayable",
      "type": "constructor"
    },
    {
      "inputs": [],
      "name": "AccessControlBadConfirmation",
      "type": "error"
    },
    {
      "inputs": [
        {
          "internalType": "address",
          "name": "account",
          "type": "address"
        },
        {
          "internalType": "bytes32",
          "name": "neededRole",
          "type": "bytes32"
        }
      ],
      "name": "AccessControlUnauthorizedAccount",
      "type": "error"
    },
    {
      "inputs": [
        {
          "internalType": "address",
          "name": "owner",
          "type": "address"
        }
      ],
      "name": "OwnableInvalidOwner",
      "type": "error"
    },
    {
      "inputs": [
        {
          "internalType": "address",
          "name": "account",
          "type": "address"
        }
      ],
      "name": "OwnableUnauthorizedAccount",
      "type": "error"
    },
    {
      "anonymous": false,
      "inputs": [
        {
          "indexed": true,
          "internalType": "address",
          "name": "previousOwner",
          "type": "address"
        },
        {
          "indexed": true,
          "internalType": "address",
          "name": "newOwner",
          "type": "address"
        }
      ],
      "name": "OwnershipTransferred",
      "type": "event"
    },
    {
      "anonymous": false,
      "inputs": [
        {
          "indexed": true,
          "internalType": "bytes32",
          "name": "role",
          "type": "bytes32"
        },
        {
          "indexed": true,
          "internalType": "bytes32",
          "name": "previousAdminRole",
          "type": "bytes32"
        },
        {
          "indexed": true,
          "internalType": "bytes32",
          "name": "newAdminRole",
          "type": "bytes32"
        }
      ],
      "name": "RoleAdminChanged",
      "type": "event"
    },
    {
      "anonymous": false,
      "inputs": [
        {
          "indexed": true,
          "internalType": "bytes32",
          "name": "role",
          "type": "bytes32"
        },
        {
          "indexed": true,
          "internalType": "address",
          "name": "account",
          "type": "address"
        },
        {
          "indexed": true,
          "internalType": "address",
          "name": "sender",
          "type": "address"
        }
      ],
      "name": "RoleGranted",
      "type": "event"
    },
    {
      "anonymous": false,
      "inputs": [
        {
          "indexed": true,
          "internalType": "bytes32",
          "name": "role",
          "type": "bytes32"
        },
        {
          "indexed": true,
          "internalType": "address",
          "name": "account",
          "type": "address"
        },
        {
          "indexed": true,
          "internalType": "address",
          "name": "sender",
          "type": "address"
        }
      ],
      "name": "RoleRevoked",
      "type": "event"
    },
    {
      "inputs": [],
      "name": "CLIENT_ROLE",
      "outputs": [
        {
          "internalType": "bytes32",
          "name": "",
          "type": "bytes32"
        }
      ],
      "stateMutability": "view",
      "type": "function"
    },
    {
      "inputs": [],
      "name": "DEFAULT_ADMIN_ROLE",
      "outputs": [
        {
          "internalType": "bytes32",
          "name": "",
          "type": "bytes32"
        }
      ],
      "stateMutability": "view",
      "type": "function"
    },
    {
      "inputs": [
        {
          "internalType": "uint256",
          "name": "amount",
          "type": "uint256"
        }
      ],
      "name": "deposit",
      "outputs": [],
      "stateMutability": "nonpayable",
      "type": "function"
    },
    {
      "inputs": [],
      "name": "getBalance",
      "outputs": [
        {
          "internalType": "uint256",
          "name": "",
          "type": "uint256"
        }
      ],
      "stateMutability": "view",
      "type": "function"
    },
    {
      "inputs": [],
      "name": "getContractBalance",
      "outputs": [
        {
          "internalType": "uint256",
          "name": "",
          "type": "uint256"
        }
      ],
      "stateMutability": "view",
      "type": "function"
    },
    {
      "inputs": [
        {
          "internalType": "bytes32",
          "name": "role",
          "type": "bytes32"
        }
      ],
      "name": "getRoleAdmin",
      "outputs": [
        {
          "internalType": "bytes32",
          "name": "",
          "type": "bytes32"
        }
      ],
      "stateMutability": "view",
      "type": "function"
    },
    {
      "inputs": [
        {
          "internalType": "bytes32",
          "name": "role",
          "type": "bytes32"
        },
        {
          "internalType": "address",
          "name": "account",
          "type": "address"
        }
      ],
      "name": "grantRole",
      "outputs": [],
      "stateMutability": "nonpayable",
      "type": "function"
    },
    {
      "inputs": [
        {
          "internalType": "bytes32",
          "name": "role",
          "type": "bytes32"
        },
        {
          "internalType": "address",
          "name": "account",
          "type": "address"
        }
      ],
      "name": "hasRole",
      "outputs": [
        {
          "internalType": "bool",
          "name": "",
          "type": "bool"
        }
      ],
      "stateMutability": "view",
      "type": "function"
    },
    {
      "inputs": [
        {
          "internalType": "uint256",
          "name": "amount",
          "type": "uint256"
        }
      ],
      "name": "mintFromTyToken",
      "outputs": [],
      "stateMutability": "nonpayable",
      "type": "function"
    },
    {
      "inputs": [],
      "name": "owner",
      "outputs": [
        {
          "internalType": "address",
          "name": "",
          "type": "address"
        }
      ],
      "stateMutability": "view",
      "type": "function"
    },
    {
      "inputs": [],
      "name": "renounceOwnership",
      "outputs": [],
      "stateMutability": "nonpayable",
      "type": "function"
    },
    {
      "inputs": [
        {
          "internalType": "bytes32",
          "name": "role",
          "type": "bytes32"
        },
        {
          "internalType": "address",
          "name": "callerConfirmation",
          "type": "address"
        }
      ],
      "name": "renounceRole",
      "outputs": [],
      "stateMutability": "nonpayable",
      "type": "function"
    },
    {
      "inputs": [
        {
          "internalType": "bytes32",
          "name": "role",
          "type": "bytes32"
        },
        {
          "internalType": "address",
          "name": "account",
          "type": "address"
        }
      ],
      "name": "revokeRole",
      "outputs": [],
      "stateMutability": "nonpayable",
      "type": "function"
    },
    {
      "inputs": [
        {
          "internalType": "bytes4",
          "name": "interfaceId",
          "type": "bytes4"
        }
      ],
      "name": "supportsInterface",
      "outputs": [
        {
          "internalType": "bool",
          "name": "",
          "type": "bool"
        }
      ],
      "stateMutability": "view",
      "type": "function"
    },
    {
      "inputs": [
        {
          "internalType": "address",
          "name": "to",
          "type": "address"
        },
        {
          "internalType": "uint256",
          "name": "amount",
          "type": "uint256"
        }
      ],
      "name": "transfer",
      "outputs": [],
      "stateMutability": "nonpayable",
      "type": "function"
    },
    {
      "inputs": [
        {
          "internalType": "address",
          "name": "newOwner",
          "type": "address"
        }
      ],
      "name": "transferOwnership",
      "outputs": [],
      "stateMutability": "nonpayable",
      "type": "function"
    },
    {
      "inputs": [],
      "name": "tytAddress",
      "outputs": [
        {
          "internalType": "address",
          "name": "",
          "type": "address"
        }
      ],
      "stateMutability": "view",
      "type": "function"
    },
    {
      "inputs": [
        {
          "internalType": "uint256",
          "name": "amount",
          "type": "uint256"
        }
      ],
      "name": "withdraw",
      "outputs": [],
      "stateMutability": "nonpayable",
      "type": "function"
    }
  ],
  "bytecode": "0x60806040523480156200001157600080fd5b5060405162001cb538038062001cb58339818101604052810190620000379190620004a0565b3380600073ffffffffffffffffffffffffffffffffffffffff168173ffffffffffffffffffffffffffffffffffffffff1603620000ae5760006040517f1e4fbdf7000000000000000000000000000000000000000000000000000000008152600401620000a59190620004e3565b60405180910390fd5b620000bf816200017960201b60201c565b5050620000f66000801b7fb19546dff01e856fb3f010c267a7b1c60363cf8a4664e21cc89c26224620214e6200023f60201b60201c565b620001287fb19546dff01e856fb3f010c267a7b1c60363cf8a4664e21cc89c26224620214e33620002a260201b60201c565b50600060028190555080600360006101000a81548173ffffffffffffffffffffffffffffffffffffffff021916908373ffffffffffffffffffffffffffffffffffffffff1602179055505062000500565b6000600160009054906101000a900473ffffffffffffffffffffffffffffffffffffffff16905081600160006101000a81548173ffffffffffffffffffffffffffffffffffffffff021916908373ffffffffffffffffffffffffffffffffffffffff1602179055508173ffffffffffffffffffffffffffffffffffffffff168173ffffffffffffffffffffffffffffffffffffffff167f8be0079c531659141344cd1fd0a4f28419497f9722a3daafe3b4186f6b6457e060405160405180910390a35050565b60006200025283620003a560201b60201c565b905081600080858152602001908152602001600020600101819055508181847fbd79b86ffe0ab8e8776151514217cd7cacd52c909f66475c3af44e129f0b00ff60405160405180910390a4505050565b6000620002b68383620003c460201b60201c565b6200039a57600160008085815260200190815260200160002060000160008473ffffffffffffffffffffffffffffffffffffffff1673ffffffffffffffffffffffffffffffffffffffff16815260200190815260200160002060006101000a81548160ff021916908315150217905550620003366200042e60201b60201c565b73ffffffffffffffffffffffffffffffffffffffff168273ffffffffffffffffffffffffffffffffffffffff16847f2f8788117e7eff1d82e926ec794901d17c78024a50270940304540a733656f0d60405160405180910390a4600190506200039f565b600090505b92915050565b6000806000838152602001908152602001600020600101549050919050565b600080600084815260200190815260200160002060000160008373ffffffffffffffffffffffffffffffffffffffff1673ffffffffffffffffffffffffffffffffffffffff16815260200190815260200160002060009054906101000a900460ff16905092915050565b600033905090565b600080fd5b600073ffffffffffffffffffffffffffffffffffffffff82169050919050565b600062000468826200043b565b9050919050565b6200047a816200045b565b81146200048657600080fd5b50565b6000815190506200049a816200046f565b92915050565b600060208284031215620004b957620004b862000436565b5b6000620004c98482850162000489565b91505092915050565b620004dd816200045b565b82525050565b6000602082019050620004fa6000830184620004d2565b92915050565b6117a580620005106000396000f3fe608060405234801561001057600080fd5b50600436106101165760003560e01c80638da5cb5b116100a2578063a9059cbb11610071578063a9059cbb146102bb578063b6b55f25146102d7578063d547741f146102f3578063eae6f6521461030f578063f2fde38b1461032d57610116565b80638da5cb5b1461023157806391d148541461024f5780639a1e67bf1461027f578063a217fddf1461029d57610116565b80632f2ff15d116100e95780632f2ff15d146101b557806336568abe146101d15780636f9fb98a146101ed578063715018a61461020b5780638683195b1461021557610116565b806301ffc9a71461011b57806312065fe01461014b578063248a9ca3146101695780632e1a7d4d14610199575b600080fd5b610135600480360381019061013091906111ad565b610349565b60405161014291906111f5565b60405180910390f35b6101536103c3565b6040516101609190611229565b60405180910390f35b610183600480360381019061017e919061127a565b61040d565b60405161019091906112b6565b60405180910390f35b6101b360048036038101906101ae91906112fd565b61042c565b005b6101cf60048036038101906101ca9190611388565b61063c565b005b6101eb60048036038101906101e69190611388565b61065e565b005b6101f56106d9565b6040516102029190611229565b60405180910390f35b6102136107a7565b005b61022f600480360381019061022a91906112fd565b6107bb565b005b6102396108a4565b60405161024691906113d7565b60405180910390f35b61026960048036038101906102649190611388565b6108ce565b60405161027691906111f5565b60405180910390f35b610287610938565b60405161029491906113d7565b60405180910390f35b6102a561095e565b6040516102b291906112b6565b60405180910390f35b6102d560048036038101906102d091906113f2565b610965565b005b6102f160048036038101906102ec91906112fd565b610af0565b005b61030d60048036038101906103089190611388565b610c7d565b005b610317610c9f565b60405161032491906112b6565b60405180910390f35b61034760048036038101906103429190611432565b610cc3565b005b60007f7965db0b000000000000000000000000000000000000000000000000000000007bffffffffffffffffffffffffffffffffffffffffffffffffffffffff1916827bffffffffffffffffffffffffffffffffffffffffffffffffffffffff191614806103bc57506103bb82610d49565b5b9050919050565b6000600460003373ffffffffffffffffffffffffffffffffffffffff1673ffffffffffffffffffffffffffffffffffffffff16815260200190815260200160002060010154905090565b6000806000838152602001908152602001600020600101549050919050565b600160149054906101000a900460ff161561047c576040517f08c379a0000000000000000000000000000000000000000000000000000000008152600401610473906114bc565b60405180910390fd5b80600460003373ffffffffffffffffffffffffffffffffffffffff1673ffffffffffffffffffffffffffffffffffffffff168152602001908152602001600020600101541015610501576040517f08c379a00000000000000000000000000000000000000000000000000000000081526004016104f890611528565b60405180910390fd5b600360009054906101000a900473ffffffffffffffffffffffffffffffffffffffff1673ffffffffffffffffffffffffffffffffffffffff1663a9059cbb33836040518363ffffffff1660e01b815260040161055e929190611548565b6020604051808303816000875af115801561057d573d6000803e3d6000fd5b505050506040513d601f19601f820116820180604052508101906105a1919061159d565b6105e0576040517f08c379a00000000000000000000000000000000000000000000000000000000081526004016105d790611616565b60405180910390fd5b80600460003373ffffffffffffffffffffffffffffffffffffffff1673ffffffffffffffffffffffffffffffffffffffff16815260200190815260200160002060010160008282546106329190611665565b9250508190555050565b6106458261040d565b61064e81610db3565b6106588383610dc7565b50505050565b610666610eb8565b73ffffffffffffffffffffffffffffffffffffffff168173ffffffffffffffffffffffffffffffffffffffff16146106ca576040517f6697b23200000000000000000000000000000000000000000000000000000000815260040160405180910390fd5b6106d48282610ec0565b505050565b60007fb19546dff01e856fb3f010c267a7b1c60363cf8a4664e21cc89c26224620214e61070581610db3565b600360009054906101000a900473ffffffffffffffffffffffffffffffffffffffff1673ffffffffffffffffffffffffffffffffffffffff166370a08231306040518263ffffffff1660e01b815260040161076091906113d7565b602060405180830381865afa15801561077d573d6000803e3d6000fd5b505050506040513d601f19601f820116820180604052508101906107a191906116ae565b91505090565b6107af610fb2565b6107b96000611039565b565b600360009054906101000a900473ffffffffffffffffffffffffffffffffffffffff1673ffffffffffffffffffffffffffffffffffffffff1663a0712d68826040518263ffffffff1660e01b81526004016108169190611229565b600060405180830381600087803b15801561083057600080fd5b505af1158015610844573d6000803e3d6000fd5b5050505080600460003373ffffffffffffffffffffffffffffffffffffffff1673ffffffffffffffffffffffffffffffffffffffff168152602001908152602001600020600101600082825461089a91906116db565b9250508190555050565b6000600160009054906101000a900473ffffffffffffffffffffffffffffffffffffffff16905090565b600080600084815260200190815260200160002060000160008373ffffffffffffffffffffffffffffffffffffffff1673ffffffffffffffffffffffffffffffffffffffff16815260200190815260200160002060009054906101000a900460ff16905092915050565b600560009054906101000a900473ffffffffffffffffffffffffffffffffffffffff1681565b6000801b81565b600160149054906101000a900460ff16156109b5576040517f08c379a00000000000000000000000000000000000000000000000000000000081526004016109ac906114bc565b60405180910390fd5b80600460003373ffffffffffffffffffffffffffffffffffffffff1673ffffffffffffffffffffffffffffffffffffffff168152602001908152602001600020600101541015610a3a576040517f08c379a0000000000000000000000000000000000000000000000000000000008152600401610a3190611528565b60405180910390fd5b80600460003373ffffffffffffffffffffffffffffffffffffffff1673ffffffffffffffffffffffffffffffffffffffff1681526020019081526020016000206001016000828254610a8c9190611665565b9250508190555080600460008473ffffffffffffffffffffffffffffffffffffffff1673ffffffffffffffffffffffffffffffffffffffff1681526020019081526020016000206001016000828254610ae591906116db565b925050819055505050565b600160149054906101000a900460ff1615610b40576040517f08c379a0000000000000000000000000000000000000000000000000000000008152600401610b37906114bc565b60405180910390fd5b600360009054906101000a900473ffffffffffffffffffffffffffffffffffffffff1673ffffffffffffffffffffffffffffffffffffffff166323b872dd3330846040518463ffffffff1660e01b8152600401610b9f9392919061170f565b6020604051808303816000875af1158015610bbe573d6000803e3d6000fd5b505050506040513d601f19601f82011682018060405250810190610be2919061159d565b610c21576040517f08c379a0000000000000000000000000000000000000000000000000000000008152600401610c1890611616565b60405180910390fd5b80600460003373ffffffffffffffffffffffffffffffffffffffff1673ffffffffffffffffffffffffffffffffffffffff1681526020019081526020016000206001016000828254610c7391906116db565b9250508190555050565b610c868261040d565b610c8f81610db3565b610c998383610ec0565b50505050565b7fa5ff3ec7a96cdbba4d2d5172d66bbc73c6db3885f29b21be5da9fa7a7c02523281565b610ccb610fb2565b600073ffffffffffffffffffffffffffffffffffffffff168173ffffffffffffffffffffffffffffffffffffffff1603610d3d5760006040517f1e4fbdf7000000000000000000000000000000000000000000000000000000008152600401610d3491906113d7565b60405180910390fd5b610d4681611039565b50565b60007f01ffc9a7000000000000000000000000000000000000000000000000000000007bffffffffffffffffffffffffffffffffffffffffffffffffffffffff1916827bffffffffffffffffffffffffffffffffffffffffffffffffffffffff1916149050919050565b610dc481610dbf610eb8565b6110ff565b50565b6000610dd383836108ce565b610ead57600160008085815260200190815260200160002060000160008473ffffffffffffffffffffffffffffffffffffffff1673ffffffffffffffffffffffffffffffffffffffff16815260200190815260200160002060006101000a81548160ff021916908315150217905550610e4a610eb8565b73ffffffffffffffffffffffffffffffffffffffff168273ffffffffffffffffffffffffffffffffffffffff16847f2f8788117e7eff1d82e926ec794901d17c78024a50270940304540a733656f0d60405160405180910390a460019050610eb2565b600090505b92915050565b600033905090565b6000610ecc83836108ce565b15610fa757600080600085815260200190815260200160002060000160008473ffffffffffffffffffffffffffffffffffffffff1673ffffffffffffffffffffffffffffffffffffffff16815260200190815260200160002060006101000a81548160ff021916908315150217905550610f44610eb8565b73ffffffffffffffffffffffffffffffffffffffff168273ffffffffffffffffffffffffffffffffffffffff16847ff6391f5c32d9c69d2a47ea670b442974b53935d1edc7fd64eb21e047a839171b60405160405180910390a460019050610fac565b600090505b92915050565b610fba610eb8565b73ffffffffffffffffffffffffffffffffffffffff16610fd86108a4565b73ffffffffffffffffffffffffffffffffffffffff161461103757610ffb610eb8565b6040517f118cdaa700000000000000000000000000000000000000000000000000000000815260040161102e91906113d7565b60405180910390fd5b565b6000600160009054906101000a900473ffffffffffffffffffffffffffffffffffffffff16905081600160006101000a81548173ffffffffffffffffffffffffffffffffffffffff021916908373ffffffffffffffffffffffffffffffffffffffff1602179055508173ffffffffffffffffffffffffffffffffffffffff168173ffffffffffffffffffffffffffffffffffffffff167f8be0079c531659141344cd1fd0a4f28419497f9722a3daafe3b4186f6b6457e060405160405180910390a35050565b61110982826108ce565b61114c5780826040517fe2517d3f000000000000000000000000000000000000000000000000000000008152600401611143929190611746565b60405180910390fd5b5050565b600080fd5b60007fffffffff0000000000000000000000000000000000000000000000000000000082169050919050565b61118a81611155565b811461119557600080fd5b50565b6000813590506111a781611181565b92915050565b6000602082840312156111c3576111c2611150565b5b60006111d184828501611198565b91505092915050565b60008115159050919050565b6111ef816111da565b82525050565b600060208201905061120a60008301846111e6565b92915050565b6000819050919050565b61122381611210565b82525050565b600060208201905061123e600083018461121a565b92915050565b6000819050919050565b61125781611244565b811461126257600080fd5b50565b6000813590506112748161124e565b92915050565b6000602082840312156112905761128f611150565b5b600061129e84828501611265565b91505092915050565b6112b081611244565b82525050565b60006020820190506112cb60008301846112a7565b92915050565b6112da81611210565b81146112e557600080fd5b50565b6000813590506112f7816112d1565b92915050565b60006020828403121561131357611312611150565b5b6000611321848285016112e8565b91505092915050565b600073ffffffffffffffffffffffffffffffffffffffff82169050919050565b60006113558261132a565b9050919050565b6113658161134a565b811461137057600080fd5b50565b6000813590506113828161135c565b92915050565b6000806040838503121561139f5761139e611150565b5b60006113ad85828601611265565b92505060206113be85828601611373565b9150509250929050565b6113d18161134a565b82525050565b60006020820190506113ec60008301846113c8565b92915050565b6000806040838503121561140957611408611150565b5b600061141785828601611373565b9250506020611428858286016112e8565b9150509250929050565b60006020828403121561144857611447611150565b5b600061145684828501611373565b91505092915050565b600082825260208201905092915050565b7f436f6e74726163742069732066726f7a656e0000000000000000000000000000600082015250565b60006114a660128361145f565b91506114b182611470565b602082019050919050565b600060208201905081810360008301526114d581611499565b9050919050565b7f496e73756666696369656e742062616c616e6365000000000000000000000000600082015250565b600061151260148361145f565b915061151d826114dc565b602082019050919050565b6000602082019050818103600083015261154181611505565b9050919050565b600060408201905061155d60008301856113c8565b61156a602083018461121a565b9392505050565b61157a816111da565b811461158557600080fd5b50565b60008151905061159781611571565b92915050565b6000602082840312156115b3576115b2611150565b5b60006115c184828501611588565b91505092915050565b7f5472616e73666572206661696c65640000000000000000000000000000000000600082015250565b6000611600600f8361145f565b915061160b826115ca565b602082019050919050565b6000602082019050818103600083015261162f816115f3565b9050919050565b7f4e487b7100000000000000000000000000000000000000000000000000000000600052601160045260246000fd5b600061167082611210565b915061167b83611210565b925082820390508181111561169357611692611636565b5b92915050565b6000815190506116a8816112d1565b92915050565b6000602082840312156116c4576116c3611150565b5b60006116d284828501611699565b91505092915050565b60006116e682611210565b91506116f183611210565b925082820190508082111561170957611708611636565b5b92915050565b600060608201905061172460008301866113c8565b61173160208301856113c8565b61173e604083018461121a565b949350505050565b600060408201905061175b60008301856113c8565b61176860208301846112a7565b939250505056fea26469706673582212204b222f2834c841639bd2904316d97d51c3eec3aae0aa9592d9fb4cfefef4b60364736f6c63430008180033",
  "linkReferences": {},
  "deployedLinkReferences": {}
}